{
  "contractName": "MultiSig",
  "abi": [
    {
      "inputs": [
        {
          "internalType": "address[]",
          "name": "_owners",
          "type": "address[]"
        },
        {
          "internalType": "uint256",
          "name": "_required",
          "type": "uint256"
        }
      ],
      "stateMutability": "nonpayable",
      "type": "constructor"
    },
    {
      "anonymous": false,
      "inputs": [
        {
          "indexed": true,
          "internalType": "address",
          "name": "approver",
          "type": "address"
        },
        {
          "indexed": true,
          "internalType": "uint256",
          "name": "index",
          "type": "uint256"
        }
      ],
      "name": "Approve",
      "type": "event"
    },
    {
      "anonymous": false,
      "inputs": [
        {
          "indexed": true,
          "internalType": "address",
          "name": "sender",
          "type": "address"
        },
        {
          "indexed": false,
          "internalType": "uint256",
          "name": "value",
          "type": "uint256"
        }
      ],
      "name": "Deposit",
      "type": "event"
    },
    {
      "anonymous": false,
      "inputs": [
        {
          "indexed": true,
          "internalType": "uint256",
          "name": "index",
          "type": "uint256"
        }
      ],
      "name": "Execute",
      "type": "event"
    },
    {
      "anonymous": false,
      "inputs": [
        {
          "indexed": true,
          "internalType": "address",
          "name": "sender",
          "type": "address"
        },
        {
          "indexed": true,
          "internalType": "address",
          "name": "to",
          "type": "address"
        },
        {
          "indexed": true,
          "internalType": "uint256",
          "name": "value",
          "type": "uint256"
        }
      ],
      "name": "NewTransaction",
      "type": "event"
    },
    {
      "inputs": [
        {
          "internalType": "uint256",
          "name": "",
          "type": "uint256"
        },
        {
          "internalType": "address",
          "name": "",
          "type": "address"
        }
      ],
      "name": "confirmations",
      "outputs": [
        {
          "internalType": "bool",
          "name": "",
          "type": "bool"
        }
      ],
      "stateMutability": "view",
      "type": "function",
      "constant": true
    },
    {
      "inputs": [
        {
          "internalType": "address",
          "name": "",
          "type": "address"
        }
      ],
      "name": "isOwner",
      "outputs": [
        {
          "internalType": "bool",
          "name": "",
          "type": "bool"
        }
      ],
      "stateMutability": "view",
      "type": "function",
      "constant": true
    },
    {
      "inputs": [
        {
          "internalType": "uint256",
          "name": "",
          "type": "uint256"
        }
      ],
      "name": "owner",
      "outputs": [
        {
          "internalType": "address",
          "name": "",
          "type": "address"
        }
      ],
      "stateMutability": "view",
      "type": "function",
      "constant": true
    },
    {
      "inputs": [],
      "name": "ownerCount",
      "outputs": [
        {
          "internalType": "uint256",
          "name": "",
          "type": "uint256"
        }
      ],
      "stateMutability": "view",
      "type": "function",
      "constant": true
    },
    {
      "inputs": [],
      "name": "required",
      "outputs": [
        {
          "internalType": "uint256",
          "name": "",
          "type": "uint256"
        }
      ],
      "stateMutability": "view",
      "type": "function",
      "constant": true
    },
    {
      "inputs": [
        {
          "internalType": "uint256",
          "name": "",
          "type": "uint256"
        }
      ],
      "name": "transactions",
      "outputs": [
        {
          "internalType": "address payable",
          "name": "to",
          "type": "address"
        },
        {
          "internalType": "uint256",
          "name": "value",
          "type": "uint256"
        },
        {
          "internalType": "bool",
          "name": "executed",
          "type": "bool"
        }
      ],
      "stateMutability": "view",
      "type": "function",
      "constant": true
    },
    {
      "inputs": [],
      "name": "txCount",
      "outputs": [
        {
          "internalType": "uint256",
          "name": "",
          "type": "uint256"
        }
      ],
      "stateMutability": "view",
      "type": "function",
      "constant": true
    },
    {
      "stateMutability": "payable",
      "type": "receive",
      "payable": true
    },
    {
      "inputs": [
        {
          "internalType": "address payable",
          "name": "_to",
          "type": "address"
        },
        {
          "internalType": "uint256",
          "name": "_value",
          "type": "uint256"
        }
      ],
      "name": "submitTransaction",
      "outputs": [],
      "stateMutability": "nonpayable",
      "type": "function"
    },
    {
      "inputs": [
        {
          "internalType": "uint256",
          "name": "_index",
          "type": "uint256"
        }
      ],
      "name": "ApproveTransaction",
      "outputs": [],
      "stateMutability": "nonpayable",
      "type": "function"
    },
    {
      "inputs": [
        {
          "internalType": "uint256",
          "name": "_index",
          "type": "uint256"
        }
      ],
      "name": "GetApprovalCount",
      "outputs": [
        {
          "internalType": "uint256",
          "name": "count",
          "type": "uint256"
        }
      ],
      "stateMutability": "view",
      "type": "function",
      "constant": true
    },
    {
      "inputs": [
        {
          "internalType": "uint256",
          "name": "_index",
          "type": "uint256"
        }
      ],
      "name": "ExecuteTransacion",
      "outputs": [],
      "stateMutability": "nonpayable",
      "type": "function"
    }
  ],
  "bytecode": "0x60806040523480156200001157600080fd5b5060405162001a5838038062001a58833981810160405281019062000037919062000597565b81518111156200007e576040517f08c379a000000000000000000000000000000000000000000000000000000000815260040162000075906200065e565b60405180910390fd5b60008111620000c4576040517f08c379a0000000000000000000000000000000000000000000000000000000008152600401620000bb90620006d0565b60405180910390fd5b60008251116200010b576040517f08c379a0000000000000000000000000000000000000000000000000000000008152600401620001029062000742565b60405180910390fd5b60005b82518110156200035e57600073ffffffffffffffffffffffffffffffffffffffff1683828151811062000146576200014562000764565b5b602002602001015173ffffffffffffffffffffffffffffffffffffffff1603620001a7576040517f08c379a00000000000000000000000000000000000000000000000000000000081526004016200019e90620007e3565b60405180910390fd5b60016000848381518110620001c157620001c062000764565b5b602002602001015173ffffffffffffffffffffffffffffffffffffffff1673ffffffffffffffffffffffffffffffffffffffff16815260200190815260200160002060009054906101000a900460ff161562000254576040517f08c379a00000000000000000000000000000000000000000000000000000000081526004016200024b9062000855565b60405180910390fd5b60008382815181106200026c576200026b62000764565b5b60200260200101519080600181540180825580915050600190039060005260206000200160009091909190916101000a81548173ffffffffffffffffffffffffffffffffffffffff021916908373ffffffffffffffffffffffffffffffffffffffff1602179055506001806000858481518110620002ef57620002ee62000764565b5b602002602001015173ffffffffffffffffffffffffffffffffffffffff1673ffffffffffffffffffffffffffffffffffffffff16815260200190815260200160002060006101000a81548160ff02191690831515021790555080806200035590620008a6565b9150506200010e565b50806003819055505050620008f3565b6000604051905090565b600080fd5b600080fd5b600080fd5b6000601f19601f8301169050919050565b7f4e487b7100000000000000000000000000000000000000000000000000000000600052604160045260246000fd5b620003d28262000387565b810181811067ffffffffffffffff82111715620003f457620003f362000398565b5b80604052505050565b6000620004096200036e565b9050620004178282620003c7565b919050565b600067ffffffffffffffff8211156200043a576200043962000398565b5b602082029050602081019050919050565b600080fd5b600073ffffffffffffffffffffffffffffffffffffffff82169050919050565b60006200047d8262000450565b9050919050565b6200048f8162000470565b81146200049b57600080fd5b50565b600081519050620004af8162000484565b92915050565b6000620004cc620004c6846200041c565b620003fd565b90508083825260208201905060208402830185811115620004f257620004f16200044b565b5b835b818110156200051f57806200050a88826200049e565b845260208401935050602081019050620004f4565b5050509392505050565b600082601f83011262000541576200054062000382565b5b815162000553848260208601620004b5565b91505092915050565b6000819050919050565b62000571816200055c565b81146200057d57600080fd5b50565b600081519050620005918162000566565b92915050565b60008060408385031215620005b157620005b062000378565b5b600083015167ffffffffffffffff811115620005d257620005d16200037d565b5b620005e08582860162000529565b9250506020620005f38582860162000580565b9150509250929050565b600082825260208201905092915050565b7f5265717569726564206973206d6f7265207468616e206f776e65727300000000600082015250565b600062000646601c83620005fd565b915062000653826200060e565b602082019050919050565b60006020820190508181036000830152620006798162000637565b9050919050565b7f5265717569726564206973203000000000000000000000000000000000000000600082015250565b6000620006b8600d83620005fd565b9150620006c58262000680565b602082019050919050565b60006020820190508181036000830152620006eb81620006a9565b9050919050565b7f546865726520617265206e6f206f776e65727300000000000000000000000000600082015250565b60006200072a601383620005fd565b91506200073782620006f2565b602082019050919050565b600060208201905081810360008301526200075d816200071b565b9050919050565b7f4e487b7100000000000000000000000000000000000000000000000000000000600052603260045260246000fd5b7f4f776e657220697320746865207a65726f206164647265737300000000000000600082015250565b6000620007cb601983620005fd565b9150620007d88262000793565b602082019050919050565b60006020820190508181036000830152620007fe81620007bc565b9050919050565b7f4f776e6572206973206e6f7420756e6971756500000000000000000000000000600082015250565b60006200083d601383620005fd565b91506200084a8262000805565b602082019050919050565b6000602082019050818103600083015262000870816200082e565b9050919050565b7f4e487b7100000000000000000000000000000000000000000000000000000000600052601160045260246000fd5b6000620008b3826200055c565b91507fffffffffffffffffffffffffffffffffffffffffffffffffffffffffffffffff8203620008e857620008e762000877565b5b600182019050919050565b61115580620009036000396000f3fe6080604052600436106100a05760003560e01c806383a74d591161006457806383a74d59146101f35780639ace38c21461021c578063a123c33e1461025b578063dc8452cd14610298578063ebd4d490146102c3578063eee8c6b2146102ec576100f5565b80630db02622146100fa5780631d43b653146101255780632f54bf6e1461014e5780633411c81c1461018b5780633c540687146101c8576100f5565b366100f5573373ffffffffffffffffffffffffffffffffffffffff167fe1fffcc4923d04b559f4d29a8bfc6cda04eb5b0d3c460751c2402c5c5cc9109c346040516100eb9190610be4565b60405180910390a2005b600080fd5b34801561010657600080fd5b5061010f610329565b60405161011c9190610be4565b60405180910390f35b34801561013157600080fd5b5061014c60048036038101906101479190610c8e565b61032f565b005b34801561015a57600080fd5b5061017560048036038101906101709190610d0c565b61053a565b6040516101829190610d54565b60405180910390f35b34801561019757600080fd5b506101b260048036038101906101ad9190610d6f565b61055a565b6040516101bf9190610d54565b60405180910390f35b3480156101d457600080fd5b506101dd610589565b6040516101ea9190610be4565b60405180910390f35b3480156101ff57600080fd5b5061021a60048036038101906102159190610daf565b61058f565b005b34801561022857600080fd5b50610243600480360381019061023e9190610daf565b6107ba565b60405161025293929190610deb565b60405180910390f35b34801561026757600080fd5b50610282600480360381019061027d9190610daf565b610821565b60405161028f9190610e31565b60405180910390f35b3480156102a457600080fd5b506102ad610860565b6040516102ba9190610be4565b60405180910390f35b3480156102cf57600080fd5b506102ea60048036038101906102e59190610daf565b610866565b005b3480156102f857600080fd5b50610313600480360381019061030e9190610daf565b610aec565b6040516103209190610be4565b60405180910390f35b60025481565b600160003373ffffffffffffffffffffffffffffffffffffffff1673ffffffffffffffffffffffffffffffffffffffff16815260200190815260200160002060009054906101000a900460ff166103bb576040517f08c379a00000000000000000000000000000000000000000000000000000000081526004016103b290610ea9565b60405180910390fd5b6005805490506005805490508110610408576040517f08c379a00000000000000000000000000000000000000000000000000000000081526004016103ff90610f15565b60405180910390fd5b600560405180606001604052808573ffffffffffffffffffffffffffffffffffffffff16815260200184815260200160001515815250908060018154018082558091505060019003906000526020600020906003020160009091909190915060008201518160000160006101000a81548173ffffffffffffffffffffffffffffffffffffffff021916908373ffffffffffffffffffffffffffffffffffffffff1602179055506020820151816001015560408201518160020160006101000a81548160ff0219169083151502179055505050818373ffffffffffffffffffffffffffffffffffffffff163373ffffffffffffffffffffffffffffffffffffffff167fe303bfcae5504a87ac4aee4818422409a3da17fecbfc891de411a02ffbacd2a560405160405180910390a4505050565b60016020528060005260406000206000915054906101000a900460ff1681565b60066020528160005260406000206020528060005260406000206000915091509054906101000a900460ff1681565b60045481565b600160003373ffffffffffffffffffffffffffffffffffffffff1673ffffffffffffffffffffffffffffffffffffffff16815260200190815260200160002060009054906101000a900460ff1661061b576040517f08c379a000000000000000000000000000000000000000000000000000000000815260040161061290610ea9565b60405180910390fd5b806005805490508110610663576040517f08c379a000000000000000000000000000000000000000000000000000000000815260040161065a90610f15565b60405180910390fd5b81600015156006600083815260200190815260200160002060003373ffffffffffffffffffffffffffffffffffffffff1673ffffffffffffffffffffffffffffffffffffffff16815260200190815260200160002060009054906101000a900460ff16151514610708576040517f08c379a00000000000000000000000000000000000000000000000000000000081526004016106ff90610f81565b60405180910390fd5b60016006600085815260200190815260200160002060003373ffffffffffffffffffffffffffffffffffffffff1673ffffffffffffffffffffffffffffffffffffffff16815260200190815260200160002060006101000a81548160ff021916908315150217905550823373ffffffffffffffffffffffffffffffffffffffff167f90ec57f18fa7b15c6b8d5e4d1deb90796c74b2ff23d4d0cecad0cb42a96b312860405160405180910390a3505050565b600581815481106107ca57600080fd5b90600052602060002090600302016000915090508060000160009054906101000a900473ffffffffffffffffffffffffffffffffffffffff16908060010154908060020160009054906101000a900460ff16905083565b6000818154811061083157600080fd5b906000526020600020016000915054906101000a900473ffffffffffffffffffffffffffffffffffffffff1681565b60035481565b600160003373ffffffffffffffffffffffffffffffffffffffff1673ffffffffffffffffffffffffffffffffffffffff16815260200190815260200160002060009054906101000a900460ff166108f2576040517f08c379a00000000000000000000000000000000000000000000000000000000081526004016108e990610ea9565b60405180910390fd5b80600580549050811061093a576040517f08c379a000000000000000000000000000000000000000000000000000000000815260040161093190610f15565b60405180910390fd5b8160006005828154811061095157610950610fa1565b5b90600052602060002090600302019050600015158160020160009054906101000a900460ff161515146109b9576040517f08c379a00000000000000000000000000000000000000000000000000000000081526004016109b09061101c565b60405180910390fd5b6003546109c585610aec565b1015610a06576040517f08c379a00000000000000000000000000000000000000000000000000000000081526004016109fd90611088565b60405180910390fd5b600060058581548110610a1c57610a1b610fa1565b5b9060005260206000209060030201905060018160020160006101000a81548160ff0219169083151502179055508060000160009054906101000a900473ffffffffffffffffffffffffffffffffffffffff1673ffffffffffffffffffffffffffffffffffffffff166108fc82600101549081150290604051600060405180830381858888f19350505050158015610ab7573d6000803e3d6000fd5b50847fddb556f1d2c1ec821e910b019d3685b229db152a0ecd517ca7e24b8bd713928960405160405180910390a25050505050565b6000805b600080549050811015610bc55760011515600660008581526020019081526020016000206000808481548110610b2957610b28610fa1565b5b9060005260206000200160009054906101000a900473ffffffffffffffffffffffffffffffffffffffff1673ffffffffffffffffffffffffffffffffffffffff1673ffffffffffffffffffffffffffffffffffffffff16815260200190815260200160002060009054906101000a900460ff16151503610bb2578180610bae906110d7565b9250505b8080610bbd906110d7565b915050610af0565b50919050565b6000819050919050565b610bde81610bcb565b82525050565b6000602082019050610bf96000830184610bd5565b92915050565b600080fd5b600073ffffffffffffffffffffffffffffffffffffffff82169050919050565b6000610c2f82610c04565b9050919050565b610c3f81610c24565b8114610c4a57600080fd5b50565b600081359050610c5c81610c36565b92915050565b610c6b81610bcb565b8114610c7657600080fd5b50565b600081359050610c8881610c62565b92915050565b60008060408385031215610ca557610ca4610bff565b5b6000610cb385828601610c4d565b9250506020610cc485828601610c79565b9150509250929050565b6000610cd982610c04565b9050919050565b610ce981610cce565b8114610cf457600080fd5b50565b600081359050610d0681610ce0565b92915050565b600060208284031215610d2257610d21610bff565b5b6000610d3084828501610cf7565b91505092915050565b60008115159050919050565b610d4e81610d39565b82525050565b6000602082019050610d696000830184610d45565b92915050565b60008060408385031215610d8657610d85610bff565b5b6000610d9485828601610c79565b9250506020610da585828601610cf7565b9150509250929050565b600060208284031215610dc557610dc4610bff565b5b6000610dd384828501610c79565b91505092915050565b610de581610c24565b82525050565b6000606082019050610e006000830186610ddc565b610e0d6020830185610bd5565b610e1a6040830184610d45565b949350505050565b610e2b81610cce565b82525050565b6000602082019050610e466000830184610e22565b92915050565b600082825260208201905092915050565b7f4e6f74206f776e65720000000000000000000000000000000000000000000000600082015250565b6000610e93600983610e4c565b9150610e9e82610e5d565b602082019050919050565b60006020820190508181036000830152610ec281610e86565b9050919050565b7f54727820646f6573206e6f74206578697374732e000000000000000000000000600082015250565b6000610eff601483610e4c565b9150610f0a82610ec9565b602082019050919050565b60006020820190508181036000830152610f2e81610ef2565b9050919050565b7f416c726561647920617070726f76656400000000000000000000000000000000600082015250565b6000610f6b601083610e4c565b9150610f7682610f35565b602082019050919050565b60006020820190508181036000830152610f9a81610f5e565b9050919050565b7f4e487b7100000000000000000000000000000000000000000000000000000000600052603260045260246000fd5b7f416c72656164792065786563757465642e000000000000000000000000000000600082015250565b6000611006601183610e4c565b915061101182610fd0565b602082019050919050565b6000602082019050818103600083015261103581610ff9565b9050919050565b7f4170706f76656c3c726571756972656400000000000000000000000000000000600082015250565b6000611072601083610e4c565b915061107d8261103c565b602082019050919050565b600060208201905081810360008301526110a181611065565b9050919050565b7f4e487b7100000000000000000000000000000000000000000000000000000000600052601160045260246000fd5b60006110e282610bcb565b91507fffffffffffffffffffffffffffffffffffffffffffffffffffffffffffffffff8203611114576111136110a8565b5b60018201905091905056fea2646970667358221220760bb40da3bf30a85f405210a0af86106a9d398167fe8705a4d7f679c850910764736f6c634300080f0033",
  "immutableReferences": {},
  "source": "// SPDX-License-Identifier: MIT\r\npragma solidity >=0.4.22 <0.9.0;\r\n\r\ncontract MultiSig{\r\n    address[] public owner;\r\n    mapping(address=>bool) public isOwner;\r\n    uint public ownerCount;\r\n    uint public required;\r\n    uint public txCount;\r\n    struct Transaction{\r\n        address payable to;\r\n        uint value;\r\n        bool executed;\r\n        \r\n    }\r\n    Transaction[] public transactions;\r\n    mapping(uint=>mapping(address=>bool)) public confirmations;\r\n\r\n    //Events\r\n    event Deposit(address indexed sender, uint value);\r\n    event NewTransaction(address indexed sender, address indexed to, uint indexed value);\r\n    event Approve(address indexed approver, uint indexed index);\r\n    event Execute(uint indexed index);\r\n\r\n    constructor(address[] memory _owners, uint _required){\r\n        require(_required <= _owners.length, 'Required is more than owners');\r\n        require(_required > 0, 'Required is 0');\r\n        require(_owners.length > 0, 'There are no owners');\r\n        \r\n        for(uint i; i<_owners.length;  i++){\r\n            require(_owners[i] !=address(0), 'Owner is the zero address');\r\n            require(!isOwner[_owners[i]], 'Owner is not unique');\r\n            owner.push(_owners[i]);\r\n            isOwner[_owners[i]] = true;\r\n\r\n\r\n\r\n        }\r\n        required = _required;\r\n        \r\n    }\r\n\r\n    //modifiers\r\n    \r\n    modifier OnlyOwners(){\r\n        require(isOwner[msg.sender], 'Not owner');\r\n        _;\r\n    }\r\n\r\n    modifier trxExists(uint index){\r\n        require(index< transactions.length, 'Trx does not exists.');\r\n        _;\r\n    }\r\n    modifier trxExecuted(uint index){\r\n        Transaction storage transaction = transactions[index];\r\n        require(transaction.executed == false, 'Already executed.');\r\n        _;\r\n    }\r\n\r\n    modifier trxApproved(uint index){\r\n        require(confirmations[index][msg.sender] == false,'Already approved');\r\n        _;\r\n    }\r\n\r\n\r\n    // Receiving Ether sent by other contracts and users\r\n    receive() external payable {\r\n        emit Deposit(msg.sender, msg.value);\r\n    }\r\n\r\n    function submitTransaction(address payable _to, uint _value) OnlyOwners trxExists(transactions.length) public {\r\n        transactions.push(Transaction(_to, _value, false));\r\n        emit NewTransaction(msg.sender, _to, _value);\r\n\r\n    }\r\n\r\n    function ApproveTransaction(uint _index) OnlyOwners trxExists(_index) trxApproved(_index) public{\r\n        confirmations[_index][msg.sender] = true;\r\n        emit Approve(msg.sender, _index);\r\n\r\n    }\r\n\r\n    function GetApprovalCount(uint _index) public view returns(uint count){\r\n        for(uint i; i<owner.length; i++){\r\n            if(confirmations[_index][owner[i]] == true){\r\n                count++;\r\n            }\r\n        }\r\n    }\r\n\r\n    function ExecuteTransacion(uint _index) OnlyOwners trxExists(_index) trxExecuted(_index) external {\r\n        require(GetApprovalCount(_index)>= required, 'Appovel<required');\r\n        Transaction storage transaction = transactions[_index];\r\n        transaction.executed = true;\r\n\r\n        transaction.to.transfer(transaction.value);\r\n        emit Execute(_index);\r\n\r\n\r\n\r\n    }\r\n}",
  "sourcePath": "E:\\Projects\\solidity-learning\\contracts\\MultiSig.sol",
  "compiler": {
    "name": "solc",
    "version": "0.8.15+commit.e14f2714.Emscripten.clang"
  },
  "schemaVersion": "3.4.8",
  "updatedAt": "2022-09-13T02:55:58.690Z",
  "networkType": "ethereum",
  "devdoc": {
    "kind": "dev",
    "methods": {},
    "version": 1
  },
  "userdoc": {
    "kind": "user",
    "methods": {},
    "version": 1
  }
}